:100000000C9434000C9451000C9451000C94670033
:100010000C9451000C9451000C9451000C9451001C
:100020000C9451000C9451000C9451000C9451000C
:100030000C9451000C9451000C9451000C945100FC
:100040000C9451000C947E000C9451000C945100BF
:100050000C9451000C9451000C9451000C945100DC
:100060000C9451000C94510011241FBECFEFD8E026
:10007000DEBFCDBF11E0A0E0B1E0E8EDF1E002C0ED
:1000800005900D92A630B107D9F721E0A6E0B1E0C6
:1000900001C01D92A132B207E1F70E94CE000C947C
:1000A000EA000C940000249AE8E6F0E08081816088
:1000B0008083EBE6F0E080818460808384E080933D
:1000C0001D0110921E011EBC80EC8CBD08951F9274
:1000D0000F920FB60F9211248F9383B18470809387
:1000E0001D0180911D01811103C08FEF80931E01BE
:1000F0008F910F900FBE0F901F9018951F920F9227
:100100000FB60F9211242F938F939F93EF93FF932A
:100110002EB580911E018F3FA9F498B182E0892706
:1001200088B9822F807880931C01E22FEF77F0E06E
:10013000EE0FFF1FE050FF4F8081918190932001CF
:1001400080931F0180911C0181110DC0E0911F015E
:10015000F0912001CF0101969093200180931F011F
:1001600080818EBD0FC080911E0181110BC0E09176
:100170001F01F0912001CF010196909320018093FF
:100180001F01208310921E01FF91EF919F918F918B
:100190002F910F900FBE0F901F9018958BEA8093B0
:1001A000060183E08093070181E08093080182E1EA
:1001B0008093090185E080930A0187E080930B0119
:1001C00089E080930C0110920D01399A0E9453002E
:0801D0007894FFCFF894FFCFF3
:0601D80006010701080109
:00000001FF
