:100000000C9434000C943E000C943E000C943E0082
:100010000C943E000C943E000C943E000C943E0068
:100020000C943E000C943E000C943E000C943E0058
:100030000C943E000C943E000C943E000C943E0048
:100040000C943E000C943E000C943E000C943E0038
:100050000C943E000C943E000C943E000C943E0028
:100060000C943E000C943E0011241FBECFEFD8E04C
:10007000DEBFCDBF0E944D000C9485000C940000A3
:1000800084B18C6284B92A9A83E58CBD08958EBDB3
:100090000DB407FEFDCF8EB5089587B1866087B990
:1000A0000E944000C2E02A9882E80E9447008BEA42
:1000B0000E9447008DEC0E9447008FEE0E9447008F
:1000C0002A9A2A9881E00E9447008FEF0E944700F9
:1000D0008FEF0E9447008FEF0E9447008FEF0E9432
:1000E00047002A9A8F3E29F488B18C2788B9429814
:1000F00002C04198429A2FEF84E39CE02150804057
:0E0100009040E1F700C00000CECFF894FFCF92
:00000001FF
