:100000000C9434000C943E000C943E000C943E0082
:100010000C943E000C943E000C943E000C943E0068
:100020000C943E000C943E000C943E000C943E0058
:100030000C943E000C943E000C943E000C943E0048
:100040000C943E000C943E000C943E000C943E0038
:100050000C943E000C943E000C943E000C943E0028
:100060000C943E000C943E0011241FBECFEFD8E04C
:10007000DEBFCDBF0E944F000C9468000C940000BE
:1000800084B18C6284B92A9A80E58CBD08952A983F
:100090008EBD0DB407FEFDCF2A9A8EB50895399A0C
:1000A0000E94400080E0D2E0C1E0C80F0E944700FB
:1000B0008E3719F488B18D2788B92FEF80E792E049
:1000C000215080409040E1F700C000008C2FECCF21
:0400D000F894FFCFD2
:00000001FF
